{
  "_format": "hh-sol-artifact-1",
  "contractName": "BoxV2",
  "sourceName": "contracts/BoxV2.sol",
  "abi": [
    {
      "anonymous": false,
      "inputs": [
        {
          "indexed": false,
          "internalType": "uint256",
          "name": "newValue",
          "type": "uint256"
        }
      ],
      "name": "ValueChanged",
      "type": "event"
    },
    {
      "inputs": [],
      "name": "increment",
      "outputs": [
        {
          "internalType": "uint256",
          "name": "",
          "type": "uint256"
        }
      ],
      "stateMutability": "nonpayable",
      "type": "function"
    },
    {
      "inputs": [],
      "name": "retrieve",
      "outputs": [
        {
          "internalType": "uint256",
          "name": "",
          "type": "uint256"
        }
      ],
      "stateMutability": "view",
      "type": "function"
    },
    {
      "inputs": [
        {
          "internalType": "uint256",
          "name": "newValue",
          "type": "uint256"
        }
      ],
      "name": "store",
      "outputs": [],
      "stateMutability": "nonpayable",
      "type": "function"
    },
    {
      "inputs": [],
      "name": "version",
      "outputs": [
        {
          "internalType": "uint256",
          "name": "",
          "type": "uint256"
        }
      ],
      "stateMutability": "pure",
      "type": "function"
    }
  ],
  "bytecode": "0x608060405234801561001057600080fd5b506102bf806100206000396000f3fe608060405234801561001057600080fd5b506004361061004c5760003560e01c80632e64cec11461005157806354fd4d501461006f5780636057361d1461008d578063d09de08a146100a9575b600080fd5b6100596100c7565b60405161006691906101c3565b60405180910390f35b6100776100d0565b60405161008491906101c3565b60405180910390f35b6100a760048036038101906100a29190610187565b6100d9565b005b6100b161011a565b6040516100be91906101c3565b60405180910390f35b60008054905090565b60006002905090565b806000819055507f93fe6d397c74fdf1402a8b72e47b68512f0510d7b98a4bc4cbdf6ac7108b3c598160405161010f91906101c3565b60405180910390a150565b6000600160005461012b91906101de565b6000819055507f93fe6d397c74fdf1402a8b72e47b68512f0510d7b98a4bc4cbdf6ac7108b3c5960005460405161016291906101c3565b60405180910390a1600054905090565b60008135905061018181610272565b92915050565b60006020828403121561019d5761019c61026d565b5b60006101ab84828501610172565b91505092915050565b6101bd81610234565b82525050565b60006020820190506101d860008301846101b4565b92915050565b60006101e982610234565b91506101f483610234565b9250827fffffffffffffffffffffffffffffffffffffffffffffffffffffffffffffffff038211156102295761022861023e565b5b828201905092915050565b6000819050919050565b7f4e487b7100000000000000000000000000000000000000000000000000000000600052601160045260246000fd5b600080fd5b61027b81610234565b811461028657600080fd5b5056fea2646970667358221220c92277dde5604aba4ddfa8564b4bd60dec4cd37f47e2a0a29db379ab56b6fa4864736f6c63430008070033",
  "linkReferences": {},
  "deployedLinkReferences": {}
}